{
  "contractName": "ForkonomicSystem",
  "abi": [
    {
      "constant": true,
      "inputs": [
        {
          "name": "",
          "type": "bytes32"
        }
      ],
      "name": "branchTimestamp",
      "outputs": [
        {
          "name": "",
          "type": "uint256"
        }
      ],
      "payable": false,
      "stateMutability": "view",
      "type": "function",
      "signature": "0x0236b817"
    },
    {
      "constant": true,
      "inputs": [],
      "name": "genesisBranchHash",
      "outputs": [
        {
          "name": "",
          "type": "bytes32"
        }
      ],
      "payable": false,
      "stateMutability": "view",
      "type": "function",
      "signature": "0x176b6f01"
    },
    {
      "constant": true,
      "inputs": [
        {
          "name": "",
          "type": "uint256"
        },
        {
          "name": "",
          "type": "uint256"
        }
      ],
      "name": "windowBranches",
      "outputs": [
        {
          "name": "",
          "type": "bytes32"
        }
      ],
      "payable": false,
      "stateMutability": "view",
      "type": "function",
      "signature": "0x1f932d7e"
    },
    {
      "constant": true,
      "inputs": [],
      "name": "WINDOWTIMESPAN",
      "outputs": [
        {
          "name": "",
          "type": "uint32"
        }
      ],
      "payable": false,
      "stateMutability": "view",
      "type": "function",
      "signature": "0x53023071"
    },
    {
      "constant": true,
      "inputs": [
        {
          "name": "",
          "type": "bytes32"
        }
      ],
      "name": "branchWindow",
      "outputs": [
        {
          "name": "",
          "type": "uint256"
        }
      ],
      "payable": false,
      "stateMutability": "view",
      "type": "function",
      "signature": "0x6ceccf73"
    },
    {
      "constant": true,
      "inputs": [
        {
          "name": "",
          "type": "bytes32"
        },
        {
          "name": "",
          "type": "address"
        }
      ],
      "name": "arbitratorWhitelists",
      "outputs": [
        {
          "name": "",
          "type": "bool"
        }
      ],
      "payable": false,
      "stateMutability": "view",
      "type": "function",
      "signature": "0x8043e771"
    },
    {
      "constant": true,
      "inputs": [],
      "name": "genesisWindowTimestamp",
      "outputs": [
        {
          "name": "",
          "type": "uint256"
        }
      ],
      "payable": false,
      "stateMutability": "view",
      "type": "function",
      "signature": "0xc506d504"
    },
    {
      "constant": true,
      "inputs": [],
      "name": "NULL_HASH",
      "outputs": [
        {
          "name": "",
          "type": "bytes32"
        }
      ],
      "payable": false,
      "stateMutability": "view",
      "type": "function",
      "signature": "0xd6dc4edc"
    },
    {
      "constant": true,
      "inputs": [
        {
          "name": "",
          "type": "bytes32"
        }
      ],
      "name": "branchParentHash",
      "outputs": [
        {
          "name": "",
          "type": "bytes32"
        }
      ],
      "payable": false,
      "stateMutability": "view",
      "type": "function",
      "signature": "0xf36b43cb"
    },
    {
      "constant": true,
      "inputs": [
        {
          "name": "",
          "type": "bytes32"
        }
      ],
      "name": "branchArbitratorsID",
      "outputs": [
        {
          "name": "",
          "type": "bytes32"
        }
      ],
      "payable": false,
      "stateMutability": "view",
      "type": "function",
      "signature": "0xfda41221"
    },
    {
      "inputs": [],
      "payable": false,
      "stateMutability": "nonpayable",
      "type": "constructor",
      "signature": "constructor"
    },
    {
      "anonymous": false,
      "inputs": [
        {
          "indexed": false,
          "name": "hash",
          "type": "bytes32"
        },
        {
          "indexed": false,
          "name": "whiteList_id",
          "type": "bytes32"
        }
      ],
      "name": "BranchCreated",
      "type": "event",
      "signature": "0x51bdc8a48ac6261405a7a60c923b1fae00465f13a9477a6278e851646a349621"
    },
    {
      "constant": false,
      "inputs": [
        {
          "name": "parentBranchHash",
          "type": "bytes32"
        },
        {
          "name": "whitelist_id",
          "type": "bytes32"
        }
      ],
      "name": "createBranch",
      "outputs": [
        {
          "name": "",
          "type": "bytes32"
        }
      ],
      "payable": false,
      "stateMutability": "nonpayable",
      "type": "function",
      "signature": "0x6a6d7965"
    },
    {
      "constant": false,
      "inputs": [
        {
          "name": "arbitrators",
          "type": "address[]"
        }
      ],
      "name": "createArbitratorWhitelist",
      "outputs": [
        {
          "name": "",
          "type": "bytes32"
        }
      ],
      "payable": false,
      "stateMutability": "nonpayable",
      "type": "function",
      "signature": "0x0614edef"
    },
    {
      "constant": true,
      "inputs": [
        {
          "name": "arb",
          "type": "address"
        },
        {
          "name": "branch",
          "type": "bytes32"
        }
      ],
      "name": "isArbitratorWhitelisted",
      "outputs": [
        {
          "name": "",
          "type": "bool"
        }
      ],
      "payable": false,
      "stateMutability": "view",
      "type": "function",
      "signature": "0x49469146"
    },
    {
      "constant": true,
      "inputs": [
        {
          "name": "investigationHash",
          "type": "bytes32"
        },
        {
          "name": "closerToRootHash",
          "type": "bytes32"
        },
        {
          "name": "fartherToRootHash",
          "type": "bytes32"
        }
      ],
      "name": "isBranchInBetweenBranches",
      "outputs": [
        {
          "name": "",
          "type": "bool"
        }
      ],
      "payable": false,
      "stateMutability": "view",
      "type": "function",
      "signature": "0xdc4803d1"
    },
    {
      "constant": true,
      "inputs": [
        {
          "name": "ts",
          "type": "uint256"
        },
        {
          "name": "branch",
          "type": "bytes32"
        }
      ],
      "name": "isBranchCreatedAfterTS",
      "outputs": [
        {
          "name": "",
          "type": "bool"
        }
      ],
      "payable": false,
      "stateMutability": "view",
      "type": "function",
      "signature": "0x2667404b"
    },
    {
      "constant": true,
      "inputs": [
        {
          "name": "branch",
          "type": "bytes32"
        }
      ],
      "name": "doesBranchExist",
      "outputs": [
        {
          "name": "",
          "type": "bool"
        }
      ],
      "payable": false,
      "stateMutability": "view",
      "type": "function",
      "signature": "0x4dd8aa05"
    },
    {
      "constant": true,
      "inputs": [
        {
          "name": "father",
          "type": "bytes32"
        },
        {
          "name": "son",
          "type": "bytes32"
        }
      ],
      "name": "isFatherOfBranch",
      "outputs": [
        {
          "name": "",
          "type": "bool"
        }
      ],
      "payable": false,
      "stateMutability": "view",
      "type": "function",
      "signature": "0x406edd36"
    }
  ],
  "bytecode": "0x608060405260008080556001805463ffffffff19166201518017905560095534801561002a57600080fd5b5060015460009063ffffffff164281151561004157fe5b06420360085550604080517f49206c6561766520746f207365766572616c206675747572657320286e6f742081527f746f20616c6c29206d792067617264656e206f6620666f726b696e67207061746020808301919091527f68730000000000000000000000000000000000000000000000000000000000008284015282519182900360420182206000548383018290528385015283518084038501815260609093019384905282519093918291908401908083835b602083106101165780518252601f1990920191602091820191016100f7565b51815160209384036101000a600019018019909216911617905260408051929094018290039091206009818155600080549281526003845285812083905590548152600690925292902091909155505060015463ffffffff1690504281151561017b57fe5b6009805460009081526004602090815260408083209590940642039094558154815260058452918220829055600790925290547f6d5257204ebe7d88fd91ae87941cb2dd9d8062b64ae5a2bd2d28ec40b9fbf6df805460018101825592527fd9e659536a2f603b20938d4b8c1783b32b56367744f7b53b49ad35612a31e7ca9091015550610a1c8061020e6000396000f3006080604052600436106100f05763ffffffff7c01000000000000000000000000000000000000000000000000000000006000350416630236b81781146100f55780630614edef1461011f578063176b6f01146101745780631f932d7e146101895780632667404b146101a4578063406edd36146101d357806349469146146101ee5780634dd8aa0514610212578063530230711461022a5780636a6d7965146102585780636ceccf73146102735780638043e7711461028b578063c506d504146102af578063d6dc4edc146102c4578063dc4803d1146102d9578063f36b43cb146102f7578063fda412211461030f575b600080fd5b34801561010157600080fd5b5061010d600435610327565b60408051918252519081900360200190f35b34801561012b57600080fd5b506040805160206004803580820135838102808601850190965280855261010d953695939460249493850192918291850190849080828437509497506103399650505050505050565b34801561018057600080fd5b5061010d61052f565b34801561019557600080fd5b5061010d600435602435610535565b3480156101b057600080fd5b506101bf600435602435610565565b604080519115158252519081900360200190f35b3480156101df57600080fd5b506101bf6004356024356105a1565b3480156101fa57600080fd5b506101bf600160a060020a03600435166024356105e8565b34801561021e57600080fd5b506101bf60043561061c565b34801561023657600080fd5b5061023f61063e565b6040805163ffffffff9092168252519081900360200190f35b34801561026457600080fd5b5061010d60043560243561064a565b34801561027f57600080fd5b5061010d600435610951565b34801561029757600080fd5b506101bf600435600160a060020a0360243516610963565b3480156102bb57600080fd5b5061010d610983565b3480156102d057600080fd5b5061010d610989565b3480156102e557600080fd5b506101bf60043560243560443561098f565b34801561030357600080fd5b5061010d6004356109cc565b34801561031b57600080fd5b5061010d6004356109de565b60046020526000908152604090205481565b600080600083600081518110151561034d57fe5b906020019060200201516040516020018082600160a060020a0316600160a060020a03166c010000000000000000000000000281526014019150506040516020818303038152906040526040518082805190602001908083835b602083106103c65780518252601f1990920191602091820191016103a7565b6001836020036101000a03801982511681845116808217855250505050505090500191505060405180910390209150600190505b83518110156104c15781848281518110151561041257fe5b6020908102919091018101516040805180840194909452600160a060020a039091166c01000000000000000000000000028382015280518084036034018152605490930190819052825190918291908401908083835b602083106104875780518252601f199092019160209182019101610468565b5181516020939093036101000a600019018019909116921691909117905260405192018290039091209450505060019190910190506103fa565b5060005b83518110156105285760008281526002602052604081208551600192908790859081106104ee57fe5b602090810291909101810151600160a060020a03168252810191909152604001600020805460ff19169115159190911790556001016104c5565b5092915050565b60095481565b60076020528160005260406000208181548110151561055057fe5b90600052602060002001600091509150505481565b600154600854600083815260056020526040812054909263ffffffff168086039102909101106105975750600161059b565b5060005b92915050565b60005b8183146105df57600091825260036020526040909120546009549091908214156105da576009548314156105975750600161059b565b6105a4565b50600192915050565b600090815260066020908152604080832054835260028252808320600160a060020a03949094168352929052205460ff1690565b60095460009082148061059b5750506000908152600560205260408120541190565b60015463ffffffff1681565b604080516020808201859052818301849052825180830384018152606090920192839052815160009384938493909282918401908083835b602083106106a15780518252601f199092019160209182019101610682565b5181516020939093036101000a600019018019909116921691909117905260405192018290039091206000549095508514159250610752915050576040805160e560020a62461bcd02815260206004820152602760248201527f6272616e636820686173682073686f756c64206e6f7420626520746865204e5560448201527f4c4c5f4841534800000000000000000000000000000000000000000000000000606482015290519081900360840190fd5b600082815260056020526040902054156107b6576040805160e560020a62461bcd02815260206004820152601560248201527f6272616e6368206d757374206e6f742065786973740000000000000000000000604482015290519081900360640190fd5b6009548514806107d25750600085815260056020526040812054115b1515610828576040805160e560020a62461bcd02815260206004820152601860248201527f706172656e74206272616e6368206d7573742065786973740000000000000000604482015290519081900360640190fd5b5060008481526005602052604090205460018054600854919092019163ffffffff168202014210156108ca576040805160e560020a62461bcd02815260206004820152603a60248201527f7468657265206d757374206265206f6e65207765656b2064656c61792062657460448201527f7765656e20706172656e7420616e6420736f6e206272616e6368000000000000606482015290519081900360840190fd5b6000828152600360209081526040808320889055600682528083208790556005825280832084905583835260078252808320805460018101825590845292829020909201849055815184815290810186905281517f51bdc8a48ac6261405a7a60c923b1fae00465f13a9477a6278e851646a349621929181900390910190a1509392505050565b60056020526000908152604090205481565b600260209081526000928352604080842090915290825290205460ff1681565b60085481565b60005481565b6000825b8083146109bf57848114156109ab57600191506109c4565b600090815260036020526040902054610993565b600091505b509392505050565b60036020526000908152604090205481565b600660205260009081526040902054815600a165627a7a7230582063d273aa78bfd2078a4bee3fd16630872df881e9fb2ba2bb61f5890f11e6a1940029",
  "source": "pragma solidity ^0.4.22;\n\n\ncontract ForkonomicSystem {\n\n    event BranchCreated(bytes32 hash, bytes32 whiteList_id);\n\n    bytes32 public NULL_HASH = \"\";\n    uint32 public WINDOWTIMESPAN = 86400; \n\n    // index_arbitrators => arbitrator => isSelected\n    mapping(bytes32=>mapping(address=>bool)) public arbitratorWhitelists;\n    // branch => parent_branch\n    mapping(bytes32 =>  bytes32) public branchParentHash;\n    // branch => timestamp\n    mapping(bytes32 =>  uint ) public branchTimestamp;\n    // branch => window\n    mapping(bytes32 =>  uint ) public branchWindow;\n    // branch => id\n    mapping(bytes32 => bytes32) public branchArbitratorsID;\n    // window => branches[]\n    mapping(uint256 => bytes32[]) public windowBranches; // index to easily get all branch hashes for a window\n    \n    uint256 public genesisWindowTimestamp; // 00:00:00 UTC on the day the contract was mined\n    bytes32 public genesisBranchHash=NULL_HASH;\n\n    constructor()\n    public {\n        genesisWindowTimestamp = now - (now % WINDOWTIMESPAN);\n        bytes32 genesisMerkleRoot = keccak256(\"I leave to several futures (not to all) my garden of forking paths\");\n        genesisBranchHash = keccak256(abi.encodePacked(genesisMerkleRoot, NULL_HASH));\n\n        branchParentHash[genesisBranchHash] = NULL_HASH;\n        branchArbitratorsID[genesisBranchHash] = NULL_HASH;\n        branchTimestamp[genesisBranchHash] = now - (now % WINDOWTIMESPAN);\n        branchWindow[genesisBranchHash] = 0;\n        windowBranches[0].push(genesisBranchHash);\n    }\n\n    function createBranch(bytes32 parentBranchHash, bytes32 whitelist_id)\n    public returns (bytes32) {\n\n        bytes32 branchHash = keccak256(abi.encodePacked(parentBranchHash, whitelist_id));\n        require(branchHash != NULL_HASH, \"branch hash should not be the NULL_HASH\");\n\n        // Your branch must not yet exist, the parent branch must exist.\n        // Check existence by timestamp, all branches have one.\n        require(branchWindow[branchHash] == 0, \"branch must not exist\");\n        require(parentBranchHash == genesisBranchHash || branchWindow[parentBranchHash] > 0, \"parent branch must exist\");\n\n         // The window should be the window after the previous branch.\n        uint256 window = branchWindow[parentBranchHash] + 1;\n        require(now >= genesisWindowTimestamp + WINDOWTIMESPAN * window, \"there must be one week delay between parent and son branch\");\n\n        branchParentHash[branchHash] = parentBranchHash;\n        branchArbitratorsID[branchHash] = whitelist_id;\n        //Either timestamp or window is not needed in this construction\n        //branchTimestamp[branchHash] = genesisWindowTimestamp + WINDOWTIMESPAN * window;\n        branchWindow[branchHash] = window;\n        windowBranches[window].push(branchHash);\n\n        emit BranchCreated(branchHash, whitelist_id);\n        return branchHash;\n    }\n\n    function createArbitratorWhitelist(address[] arbitrators)\n    public returns (bytes32) {\n        // generate unique id;\n        bytes32 prev_hash = keccak256(abi.encodePacked(arbitrators[0]));\n        for (uint i=1; i < arbitrators.length; i++) {\n            prev_hash = keccak256(abi.encodePacked(prev_hash, arbitrators[i]));\n        }\n        //set abirtrator address as true    \n        for (i = 0; i < arbitrators.length; i++) {\n            arbitratorWhitelists[prev_hash][arbitrators[i]] = true;\n        }\n        return prev_hash;\n    }\n\n    function isArbitratorWhitelisted(address arb, bytes32 branch) \n    public constant returns (bool) {\n        return arbitratorWhitelists[branchArbitratorsID[branch]][arb];\n    }\n \n    function isBranchInBetweenBranches(bytes32 investigationHash, bytes32 closerToRootHash, bytes32 fartherToRootHash)\n    public constant returns (bool) {\n        bytes32 iterationHash = closerToRootHash;\n        while (iterationHash != fartherToRootHash) {\n            if (investigationHash == iterationHash) {\n                return true;\n            } else {\n                iterationHash = branchParentHash[iterationHash];\n            }\n        }\n        return false;\n    }\n\n    function isBranchCreatedAfterTS(uint256 ts, bytes32 branch) public view returns(bool) {\n        if (branchWindow[branch] * WINDOWTIMESPAN + genesisWindowTimestamp >= ts - WINDOWTIMESPAN)\n            return true;\n        else \n            return false;\n    }\n\n    function doesBranchExist(bytes32 branch) public view returns(bool) {\n        return (branch == genesisBranchHash || branchWindow[branch] > 0);\n    }\n\n    function isFatherOfBranch(bytes32 father, bytes32 son)\n    public constant returns (bool) {\n\n        while (son != father) {\n            son = branchParentHash[son];\n            if (son == genesisBranchHash)\n                if (father == genesisBranchHash)\n                    return true;\n                else\n                    return false;\n        }\n        return true;\n    }\n}\n",
  "sourcePath": "@josojo/forkonomics-contracts/contracts/ForkonomicSystem.sol",
  "compiler": {
    "name": "solc",
    "version": "0.4.25+commit.59dbf8f1.Emscripten.clang"
  },
  "schemaVersion": "3.0.0-beta.1",
  "updatedAt": "2018-11-11T16:31:32.510Z"
}