{
  "contractName": "ScalarEvent",
  "abi": [
    {
      "constant": true,
      "inputs": [],
      "name": "outcome",
      "outputs": [
        {
          "name": "",
          "type": "bytes32"
        }
      ],
      "payable": false,
      "stateMutability": "view",
      "type": "function",
      "signature": "0x27793f87"
    },
    {
      "constant": true,
      "inputs": [],
      "name": "content_hash",
      "outputs": [
        {
          "name": "",
          "type": "bytes32"
        }
      ],
      "payable": false,
      "stateMutability": "view",
      "type": "function",
      "signature": "0x28047258"
    },
    {
      "constant": true,
      "inputs": [],
      "name": "collateralBranch",
      "outputs": [
        {
          "name": "",
          "type": "bytes32"
        }
      ],
      "payable": false,
      "stateMutability": "view",
      "type": "function",
      "signature": "0x413d24b9"
    },
    {
      "constant": true,
      "inputs": [],
      "name": "minTimeout",
      "outputs": [
        {
          "name": "",
          "type": "uint32"
        }
      ],
      "payable": false,
      "stateMutability": "view",
      "type": "function",
      "signature": "0x4cf71be4"
    },
    {
      "constant": true,
      "inputs": [],
      "name": "LONG",
      "outputs": [
        {
          "name": "",
          "type": "uint8"
        }
      ],
      "payable": false,
      "stateMutability": "view",
      "type": "function",
      "signature": "0x561cce0a"
    },
    {
      "constant": true,
      "inputs": [],
      "name": "OUTCOME_RANGE",
      "outputs": [
        {
          "name": "",
          "type": "uint24"
        }
      ],
      "payable": false,
      "stateMutability": "view",
      "type": "function",
      "signature": "0x6e5452fe"
    },
    {
      "constant": true,
      "inputs": [],
      "name": "minBond",
      "outputs": [
        {
          "name": "",
          "type": "uint256"
        }
      ],
      "payable": false,
      "stateMutability": "view",
      "type": "function",
      "signature": "0x831518b7"
    },
    {
      "constant": true,
      "inputs": [
        {
          "name": "",
          "type": "uint256"
        }
      ],
      "name": "outcomeTokens",
      "outputs": [
        {
          "name": "",
          "type": "address"
        }
      ],
      "payable": false,
      "stateMutability": "view",
      "type": "function",
      "signature": "0x8abe59ea"
    },
    {
      "constant": true,
      "inputs": [],
      "name": "forkonomicToken",
      "outputs": [
        {
          "name": "",
          "type": "address"
        }
      ],
      "payable": false,
      "stateMutability": "view",
      "type": "function",
      "signature": "0x942032e3"
    },
    {
      "constant": true,
      "inputs": [],
      "name": "lowerBound",
      "outputs": [
        {
          "name": "",
          "type": "int256"
        }
      ],
      "payable": false,
      "stateMutability": "view",
      "type": "function",
      "signature": "0xa384d6ff"
    },
    {
      "constant": true,
      "inputs": [],
      "name": "masterCopy",
      "outputs": [
        {
          "name": "",
          "type": "address"
        }
      ],
      "payable": false,
      "stateMutability": "view",
      "type": "function",
      "signature": "0xa619486e"
    },
    {
      "constant": true,
      "inputs": [],
      "name": "SHORT",
      "outputs": [
        {
          "name": "",
          "type": "uint8"
        }
      ],
      "payable": false,
      "stateMutability": "view",
      "type": "function",
      "signature": "0xa871da91"
    },
    {
      "constant": true,
      "inputs": [],
      "name": "questionId",
      "outputs": [
        {
          "name": "",
          "type": "bytes32"
        }
      ],
      "payable": false,
      "stateMutability": "view",
      "type": "function",
      "signature": "0xb06a5c52"
    },
    {
      "constant": true,
      "inputs": [],
      "name": "upperBound",
      "outputs": [
        {
          "name": "",
          "type": "int256"
        }
      ],
      "payable": false,
      "stateMutability": "view",
      "type": "function",
      "signature": "0xb09ad8a0"
    },
    {
      "constant": true,
      "inputs": [],
      "name": "openingTs",
      "outputs": [
        {
          "name": "",
          "type": "uint32"
        }
      ],
      "payable": false,
      "stateMutability": "view",
      "type": "function",
      "signature": "0xc7049657"
    },
    {
      "constant": true,
      "inputs": [],
      "name": "fSystem",
      "outputs": [
        {
          "name": "",
          "type": "address"
        }
      ],
      "payable": false,
      "stateMutability": "view",
      "type": "function",
      "signature": "0xd440796e"
    },
    {
      "anonymous": false,
      "inputs": [
        {
          "indexed": false,
          "name": "outcomeToken",
          "type": "address"
        },
        {
          "indexed": false,
          "name": "index",
          "type": "uint8"
        }
      ],
      "name": "OutcomeTokenCreation",
      "type": "event",
      "signature": "0xad24776dc347085865b6988e249c191fc22d9b31cf54cb62233c3c16be1736ee"
    },
    {
      "anonymous": false,
      "inputs": [
        {
          "indexed": true,
          "name": "buyer",
          "type": "address"
        },
        {
          "indexed": false,
          "name": "collateralTokenCount",
          "type": "uint256"
        }
      ],
      "name": "OutcomeTokenSetIssuance",
      "type": "event",
      "signature": "0xad2a02292986148558019ae4abf172732228e32e131a91d3fa7e0cada61932c0"
    },
    {
      "anonymous": false,
      "inputs": [
        {
          "indexed": true,
          "name": "seller",
          "type": "address"
        },
        {
          "indexed": false,
          "name": "outcomeTokenCount",
          "type": "uint256"
        }
      ],
      "name": "OutcomeTokenSetRevocation",
      "type": "event",
      "signature": "0x7ac9271efd660c24459c447459e46f7366d2b4a692e572f108619d0d7273fcc5"
    },
    {
      "anonymous": false,
      "inputs": [
        {
          "indexed": true,
          "name": "receiver",
          "type": "address"
        },
        {
          "indexed": false,
          "name": "winnings",
          "type": "uint256"
        },
        {
          "indexed": false,
          "name": "branch",
          "type": "bytes32"
        }
      ],
      "name": "WinningsRedemption",
      "type": "event",
      "signature": "0x261bec1cfee965354caed07a05f2e1e81eba67edc1d11980ac6f68c838dc15dd"
    },
    {
      "anonymous": false,
      "inputs": [
        {
          "indexed": false,
          "name": "a",
          "type": "bytes32"
        }
      ],
      "name": "LogB",
      "type": "event",
      "signature": "0xd8cfd15a18acf055da86af88b707b6b949547c68600ee3545bf254a1261bc3c7"
    },
    {
      "constant": false,
      "inputs": [],
      "name": "revokeOutcomeTokens",
      "outputs": [],
      "payable": false,
      "stateMutability": "nonpayable",
      "type": "function",
      "signature": "0x2082b264"
    },
    {
      "constant": false,
      "inputs": [
        {
          "name": "branchForWithdraw",
          "type": "bytes32"
        },
        {
          "name": "arbitrator",
          "type": "address"
        }
      ],
      "name": "redeemWinnings",
      "outputs": [
        {
          "name": "winnings",
          "type": "uint256"
        }
      ],
      "payable": false,
      "stateMutability": "nonpayable",
      "type": "function",
      "signature": "0xe2ded99c"
    },
    {
      "constant": false,
      "inputs": [],
      "name": "clearData",
      "outputs": [],
      "payable": false,
      "stateMutability": "nonpayable",
      "type": "function",
      "signature": "0xb9e7a439"
    },
    {
      "constant": true,
      "inputs": [],
      "name": "getEventHash",
      "outputs": [
        {
          "name": "",
          "type": "bytes32"
        }
      ],
      "payable": false,
      "stateMutability": "view",
      "type": "function",
      "signature": "0xe96e5950"
    },
    {
      "constant": false,
      "inputs": [
        {
          "name": "collateralTokenCount",
          "type": "uint256"
        }
      ],
      "name": "buyAllOutcomes",
      "outputs": [],
      "payable": false,
      "stateMutability": "nonpayable",
      "type": "function",
      "signature": "0x28da850b"
    },
    {
      "constant": false,
      "inputs": [
        {
          "name": "outcomeTokenCount",
          "type": "uint256"
        }
      ],
      "name": "sellAllOutcomes",
      "outputs": [],
      "payable": false,
      "stateMutability": "nonpayable",
      "type": "function",
      "signature": "0x6fb1edcd"
    },
    {
      "constant": true,
      "inputs": [
        {
          "name": "branch",
          "type": "bytes32"
        },
        {
          "name": "arbitrator",
          "type": "address"
        }
      ],
      "name": "getOutcome",
      "outputs": [
        {
          "name": "outcome",
          "type": "int256"
        }
      ],
      "payable": false,
      "stateMutability": "view",
      "type": "function",
      "signature": "0xd71ed40a"
    },
    {
      "constant": true,
      "inputs": [],
      "name": "getOutcomeCount",
      "outputs": [
        {
          "name": "",
          "type": "uint8"
        }
      ],
      "payable": false,
      "stateMutability": "view",
      "type": "function",
      "signature": "0x7dc8f086"
    },
    {
      "constant": true,
      "inputs": [],
      "name": "getOutcomeTokens",
      "outputs": [
        {
          "name": "",
          "type": "address[]"
        }
      ],
      "payable": false,
      "stateMutability": "view",
      "type": "function",
      "signature": "0xf21a1468"
    },
    {
      "constant": true,
      "inputs": [
        {
          "name": "owner",
          "type": "address"
        }
      ],
      "name": "getOutcomeTokenDistribution",
      "outputs": [
        {
          "name": "outcomeTokenDistribution",
          "type": "uint256[]"
        }
      ],
      "payable": false,
      "stateMutability": "view",
      "type": "function",
      "signature": "0x69c19d4c"
    }
  ],
  "bytecode": "0x60806040526101f46007556008805463ffffffff19166201518017905534801561002857600080fd5b5061191b806100386000396000f30060806040526004361061013a5763ffffffff60e060020a6000350416632082b264811461013f57806327793f8714610156578063280472581461017d57806328da850b14610192578063413d24b9146101aa5780634cf71be4146101bf578063561cce0a146101ed57806369c19d4c146102185780636e5452fe146102895780636fb1edcd146102b65780637dc8f086146102ce578063831518b7146102e35780638abe59ea146102f8578063942032e31461032c578063a384d6ff14610341578063a619486e14610356578063a871da911461036b578063b06a5c5214610380578063b09ad8a014610395578063b9e7a439146103aa578063c7049657146103bf578063d440796e146103d4578063d71ed40a146103e9578063e2ded99c1461040d578063e96e595014610431578063f21a146814610446575b600080fd5b34801561014b57600080fd5b5061015461045b565b005b34801561016257600080fd5b5061016b61078a565b60408051918252519081900360200190f35b34801561018957600080fd5b5061016b610790565b34801561019e57600080fd5b50610154600435610796565b3480156101b657600080fd5b5061016b610985565b3480156101cb57600080fd5b506101d461098b565b6040805163ffffffff9092168252519081900360200190f35b3480156101f957600080fd5b50610202610997565b6040805160ff9092168252519081900360200190f35b34801561022457600080fd5b50610239600160a060020a036004351661099c565b60408051602080825283518183015283519192839290830191858101910280838360005b8381101561027557818101518382015260200161025d565b505050509050019250505060405180910390f35b34801561029557600080fd5b5061029e610abb565b6040805162ffffff9092168252519081900360200190f35b3480156102c257600080fd5b50610154600435610ac2565b3480156102da57600080fd5b50610202610cab565b3480156102ef57600080fd5b5061016b610cb1565b34801561030457600080fd5b50610310600435610cb7565b60408051600160a060020a039092168252519081900360200190f35b34801561033857600080fd5b50610310610cdf565b34801561034d57600080fd5b5061016b610cee565b34801561036257600080fd5b50610310610cf4565b34801561037757600080fd5b50610202610d03565b34801561038c57600080fd5b5061016b610d08565b3480156103a157600080fd5b5061016b610d0e565b3480156103b657600080fd5b50610154610d14565b3480156103cb57600080fd5b506101d4610d33565b3480156103e057600080fd5b50610310610d47565b3480156103f557600080fd5b5061016b600435600160a060020a0360243516610d56565b34801561041957600080fd5b5061016b600435600160a060020a036024351661117f565b34801561043d57600080fd5b5061016b6117e9565b34801561045257600080fd5b5061023961188d565b336000908152600c602052604081205481901580156104875750336000908152600d6020526040902054155b15156104dd576040805160e560020a62461bcd02815260206004820181905260248201527f746f6b656e73206861766520616c7265616479206265656e207265766f6b6564604482015290519081900360640190fd5b6001805460009081106104ec57fe5b6000918252602080832090910154604080517f70a082310000000000000000000000000000000000000000000000000000000081523360048201529051600160a060020a03909216936370a082319360248084019491939192918390030190829087803b15801561055c57600080fd5b505af1158015610570573d6000803e3d6000fd5b505050506040513d602081101561058657600080fd5b5051336000908152600c60205260408120829055600180549294509181106105aa57fe5b6000918252602082200154604080517feac449d9000000000000000000000000000000000000000000000000000000008152336004820152602481018690529051600160a060020a039092169263eac449d99260448084019382900301818387803b15801561061857600080fd5b505af115801561062c573d6000803e3d6000fd5b505060018054909250829150811061064057fe5b6000918252602080832090910154604080517f70a082310000000000000000000000000000000000000000000000000000000081523360048201529051600160a060020a03909216936370a082319360248084019491939192918390030190829087803b1580156106b057600080fd5b505af11580156106c4573d6000803e3d6000fd5b505050506040513d60208110156106da57600080fd5b5051336000908152600d6020526040902081905560018054919250908190811061070057fe5b6000918252602082200154604080517feac449d9000000000000000000000000000000000000000000000000000000008152336004820152602481018590529051600160a060020a039092169263eac449d99260448084019382900301818387803b15801561076e57600080fd5b505af1158015610782573d6000803e3d6000fd5b505050505050565b60095481565b60065481565b60025460048054604080517f401e3367000000000000000000000000000000000000000000000000000000008152339381019390935230602484015260448301859052606483019190915251600092600160a060020a03169163401e336791608480830192602092919082900301818787803b15801561081557600080fd5b505af1158015610829573d6000803e3d6000fd5b505050506040513d602081101561083f57600080fd5b50511515610897576040805160e560020a62461bcd02815260206004820152601960248201527f7472616e7366657220776173206e6f7420706f737369626c6500000000000000604482015290519081900360640190fd5b5060005b60015460ff8216101561094b576001805460ff83169081106108b957fe5b6000918252602082200154604080517f867904b4000000000000000000000000000000000000000000000000000000008152336004820152602481018690529051600160a060020a039092169263867904b49260448084019382900301818387803b15801561092757600080fd5b505af115801561093b573d6000803e3d6000fd5b50506001909201915061089b9050565b60408051838152905133917fad2a02292986148558019ae4abf172732228e32e131a91d3fa7e0cada61932c0919081900360200190a25050565b60045481565b60085463ffffffff1681565b600181565b606060006001805490506040519080825280602002602001820160405280156109cf578160200160208202803883390190505b509150600090505b81518160ff161015610ab5576001805460ff83169081106109f457fe5b6000918252602080832090910154604080517f70a08231000000000000000000000000000000000000000000000000000000008152600160a060020a038881166004830152915191909216936370a0823193602480850194919392918390030190829087803b158015610a6657600080fd5b505af1158015610a7a573d6000803e3d6000fd5b505050506040513d6020811015610a9057600080fd5b50518251839060ff8416908110610aa357fe5b602090810290910101526001016109d7565b50919050565b620f424081565b60005b60015460ff82161015610b75576001805460ff8316908110610ae357fe5b6000918252602082200154604080517feac449d9000000000000000000000000000000000000000000000000000000008152336004820152602481018690529051600160a060020a039092169263eac449d99260448084019382900301818387803b158015610b5157600080fd5b505af1158015610b65573d6000803e3d6000fd5b505060019092019150610ac59050565b60025460048054604080517f57cfeeee000000000000000000000000000000000000000000000000000000008152339381019390935260248301869052604483019190915251600160a060020a03909216916357cfeeee916064808201926020929091908290030181600087803b158015610bef57600080fd5b505af1158015610c03573d6000803e3d6000fd5b505050506040513d6020811015610c1957600080fd5b50511515610c71576040805160e560020a62461bcd02815260206004820152600f60248201527f7472616e73666572206661696c65640000000000000000000000000000000000604482015290519081900360640190fd5b60408051838152905133917f7ac9271efd660c24459c447459e46f7366d2b4a692e572f108619d0d7273fcc5919081900360200190a25050565b60015490565b60075481565b6001805482908110610cc557fe5b600091825260209091200154600160a060020a0316905081565b600254600160a060020a031681565b600a5481565b600054600160a060020a031681565b600081565b60055481565b600b5481565b336000908152600c60209081526040808320839055600d909152812055565b600854640100000000900463ffffffff1681565b600354600160a060020a031681565b60035460048054604080517f406edd36000000000000000000000000000000000000000000000000000000008152928301919091526024820185905251600092600160a060020a03169163406edd3691604480830192602092919082900301818787803b158015610dc657600080fd5b505af1158015610dda573d6000803e3d6000fd5b505050506040513d6020811015610df057600080fd5b50511515610e48576040805160e560020a62461bcd02815260206004820152601460248201527f206e6f74206120666168746572206272616e6368000000000000000000000000604482015290519081900360640190fd5b600354604080517f49469146000000000000000000000000000000000000000000000000000000008152600160a060020a038581166004830152602482018790529151919092169163494691469160448083019260209291908290030181600087803b158015610eb757600080fd5b505af1158015610ecb573d6000803e3d6000fd5b505050506040513d6020811015610ee157600080fd5b50511515610f39576040805160e560020a62461bcd02815260206004820152601b60248201527f61726269747261746f72206e6f742077686974652d6c69737465640000000000604482015290519081900360640190fd5b600354600854600554604080517facae8f4e000000000000000000000000000000000000000000000000000000008152600481019290925251600160a060020a0393841693632667404b93680100000000000000009004169163acae8f4e9160248083019260209291908290030181600087803b158015610fb957600080fd5b505af1158015610fcd573d6000803e3d6000fd5b505050506040513d6020811015610fe357600080fd5b50516040805163ffffffff84811660e060020a0282529092166004830152602482018790525160448083019260209291908290030181600087803b15801561102a57600080fd5b505af115801561103e573d6000803e3d6000fd5b505050506040513d602081101561105457600080fd5b505115156110ac576040805160e560020a62461bcd02815260206004820152601060248201527f6272616e636820697320746f206f6c6400000000000000000000000000000000604482015290519081900360640190fd5b600854600554600654600754604080517f12a203c300000000000000000000000000000000000000000000000000000000815260048101949094526024840192909252600160a060020a03868116604485015263ffffffff85166064850152608484019190915290516801000000000000000090930416916312a203c39160a4808201926020929091908290030181600087803b15801561114c57600080fd5b505af1158015611160573d6000803e3d6000fd5b505050506040513d602081101561117657600080fd5b50519392505050565b336000908152600c6020908152604080832054600d90925282205482808080808611806111ac5750600085115b1515611202576040805160e560020a62461bcd02815260206004820152601d60248201527f20666972737420746f6b656e73206d757374206265207265766f6b6564000000604482015290519081900360640190fd5b61120c8989610d56565b9350600a548412156112215760009250611259565b600b5484131561123657620f42409250611259565b600a54600b5403600a548503620f424062ffffff160281151561125557fe5b0592505b5050604080517fc8a4ac9c00000000000000000000000000000000000000000000000000000000815260048101869052620f424083810362ffffff166024830181905292518382039273__Math__________________________________9163c8a4ac9c91604480820192602092909190829003018186803b1580156112de57600080fd5b505af41580156112f2573d6000803e3d6000fd5b505050506040513d602081101561130857600080fd5b5051604080517fc8a4ac9c0000000000000000000000000000000000000000000000000000000081526004810189905260248101859052905173__Math__________________________________9263771602f7929091849163c8a4ac9c916044808301926020929190829003018186803b15801561138657600080fd5b505af415801561139a573d6000803e3d6000fd5b505050506040513d60208110156113b057600080fd5b50516040805160e060020a63ffffffff861602815260048101939093526024830191909152516044808301926020929190829003018186803b1580156113f557600080fd5b505af4158015611409573d6000803e3d6000fd5b505050506040513d602081101561141f57600080fd5b505181151561142a57fe5b049650600260009054906101000a9004600160a060020a0316600160a060020a031663cf54a3d33360008c6004546040518563ffffffff1660e060020a0281526004018085600160a060020a0316600160a060020a03168152602001846000191660001916815260200183600019166000191681526020018260001916600019168152602001945050505050602060405180830381600087803b1580156114d057600080fd5b505af11580156114e4573d6000803e3d6000fd5b505050506040513d60208110156114fa57600080fd5b505115611577576040805160e560020a62461bcd02815260206004820152603460248201527f74686572652068616420616c7265616479206265656e2061207769746864726160448201527f77616c202872656465656d57696e6e696e677329000000000000000000000000606482015290519081900360840190fd5b600254604080517f6dd265a5000000000000000000000000000000000000000000000000000000008152336004820152602481018a9052604481018c9052600060648201819052608482018190529151600160a060020a0390931692636dd265a59260a480840193602093929083900390910190829087803b1580156115fc57600080fd5b505af1158015611610573d6000803e3d6000fd5b505050506040513d602081101561162657600080fd5b505115156116a3576040805160e560020a62461bcd028152602060048201526024808201527f7472616e736665722077656e742077726f6e67202872656465656d57696e6e6960448201527f6e67732900000000000000000000000000000000000000000000000000000000606482015290519081900360840190fd5b600254604080517f8097c95e000000000000000000000000000000000000000000000000000000008152336004820152600060248201819052604482018b9052606482018d90529151600160a060020a0390931692638097c95e92608480840193602093929083900390910190829087803b15801561172157600080fd5b505af1158015611735573d6000803e3d6000fd5b505050506040513d602081101561174b57600080fd5b505115156117a3576040805160e560020a62461bcd02815260206004820181905260248201527f7769746864726177616c20636f756c64206e6f74206265207265636f72646564604482015290519081900360640190fd5b60408051888152602081018b9052815133927f261bec1cfee965354caed07a05f2e1e81eba67edc1d11980ac6f68c838dc15dd928290030190a250505050505092915050565b600454600554600a54600b54604080516020808201969096528082019490945260608401929092526080808401919091528151808403909101815260a09092019081905281516000938291908401908083835b6020831061185b5780518252601f19909201916020918201910161183c565b6001836020036101000a0380198251168184511680821785525050505050509050019150506040518091039020905090565b606060018054806020026020016040519081016040528092919081815260200182805480156118e557602002820191906000526020600020905b8154600160a060020a031681526001909101906020018083116118c7575b50505050509050905600a165627a7a7230582054eb38b610aa5a3b2ecc8a39737e58c73688bbe3ba1894840c30440dfbf8b3c70029",
  "source": "pragma solidity ^0.4.24;\nimport \"./Event.sol\";\nimport \"./Proxy.sol\";\nimport \"@josojo/forkonomics-contracts/contracts/ForkonomicToken.sol\";\nimport \"@josojo/forkonomics-contracts/contracts/ForkonomicSystem.sol\";\nimport \"@realitio/realitio-contracts/truffle/contracts/Realitio.sol\";\n\n\ncontract ScalarEventData {\n\n    /*\n     *  Constants\n     */\n    uint8 public constant SHORT = 0;\n    uint8 public constant LONG = 1;\n    uint24 public constant OUTCOME_RANGE = 1000000;\n\n    /*\n     *  Storage\n     */\n    int public lowerBound;\n    int public upperBound;\n\n    // user => tokenCount of Short outcomeTokens\n    mapping( address => uint) outcomeTokensCountShort;\n    // user => tokenCount of Long outcomeTokens\n    mapping( address => uint) outcomeTokensCountLong;\n\n}\n\n\ncontract ScalarEventProxy is Proxy, EventData, ScalarEventData {\n\n    /// @dev Contract constructor validates and sets basic event properties\n\n    /// @param _collateralBranch Tokens used as collateral in exchange for outcome tokens\n    /// @param _realityCheck Oracle contract used to resolve the event\n    /// @param _lowerBound Lower bound for event outcome\n    /// @param _upperBound Lower bound for event outcome\n    constructor(\n        address proxied,\n        ForkonomicToken _forkonomicToken,\n        ForkonomicSystem _fSystem,\n        Realitio _realityCheck,\n        bytes32 _collateralBranch,\n        string question_,\n        uint32 openingTs_,\n        uint32  minTimeout_,\n        uint256 templateId_,\n        address arbitrator,\n        int _lowerBound,\n        int _upperBound\n    )\n        Proxy(proxied)\n        public\n    {\n        // Validate input\n        require(address(_forkonomicToken) != 0 && address(_realityCheck) != 0, \"please check the input for the constructor\");\n        require(_collateralBranch != bytes32(0), \" please check the collateralBranch\");\n\n        forkonomicToken = _forkonomicToken;\n        fSystem = _fSystem;\n        collateralBranch = _collateralBranch;\n\n\n        // create question in relaityCheck\n        openingTs = openingTs_;\n        minTimeout = minTimeout_; \n        content_hash = keccak256(abi.encodePacked(templateId_, openingTs_, question_));  \n\n        realityCheck = _realityCheck;\n        questionId = realityCheck.askQuestion(templateId_, question_, arbitrator, minTimeout, openingTs_, 0);\n\n        // Create an outcome token for each outcome\n        // Create LongTokens    \n        OutcomeToken outcomeToken = new OutcomeToken(\"LONG\", string(abi.encodePacked(\"Long Token for Event \", questionId)));\n        outcomeTokens.push(outcomeToken);\n        emit OutcomeTokenCreation(outcomeToken, 1);\n        //create ShortTokens\n        outcomeToken = new OutcomeToken(\"SHRT\", string(abi.encodePacked(\"Short Token for Event \", questionId)));\n        outcomeTokens.push(outcomeToken);\n        emit OutcomeTokenCreation(outcomeToken, 2);\n            \n    \n        // Validate bounds\n        require(_upperBound > _lowerBound, \" bounds are not set correctly\");\n        lowerBound = _lowerBound;\n        upperBound = _upperBound;\n    }\n}\n\n\n/// @title Scalar event contract - Scalar events resolve to a number within a range\n/// @author Stefan George - <stefan@gnosis.pm>\ncontract ScalarEvent is Proxied, EventData, ScalarEventData {\n    using Math for *;\n\n    /*\n     *  Public functions\n     */\n\n    bytes32 constant NULL_HASH = \"\";\n    address constant NULL_ADDRESS = 0x0;\n\n\n    function revokeOutcomeTokens()\n        public\n    {\n        // only possible, if tokens were not yet revoked by this account\n        // if this function has already been used, the tokens needs to be transfered to another account\n        require(outcomeTokensCountShort[msg.sender] == 0 && outcomeTokensCountLong[msg.sender] == 0, \"tokens have already been revoked\");\n        uint shortOutcomeTokenCount = outcomeTokens[SHORT].balanceOf(msg.sender);\n        outcomeTokensCountShort[msg.sender] = shortOutcomeTokenCount;\n        outcomeTokens[SHORT].revoke(msg.sender, shortOutcomeTokenCount);\n        uint longOutcomeTokenCount = outcomeTokens[LONG].balanceOf(msg.sender);\n        outcomeTokensCountLong[msg.sender] = longOutcomeTokenCount;\n        outcomeTokens[LONG].revoke(msg.sender, longOutcomeTokenCount);\n    } \n\n    /// @dev Exchanges sender's winning outcome tokens for collateral tokens\n    /// @return Sender's winnings\n    function redeemWinnings(bytes32 branchForWithdraw, address arbitrator)\n        public\n        returns (uint winnings)\n    {\n\n        uint shortOutcomeTokenCount = outcomeTokensCountShort[msg.sender];\n        uint longOutcomeTokenCount = outcomeTokensCountLong[msg.sender];\n\n        // tokens need to be revoked before winnings can be redeemed\n        require(shortOutcomeTokenCount > 0 || longOutcomeTokenCount > 0, \" first tokens must be revoked\");\n\n        //calculate the winnings\n        int outcome = getOutcome(branchForWithdraw, arbitrator);\n\n        // Outcome is lower than defined lower bound\n        uint24 convertedWinningOutcome;\n        if (outcome < lowerBound)\n            convertedWinningOutcome = 0;\n        // Outcome is higher than defined upper bound\n        else if (outcome > upperBound)\n            convertedWinningOutcome = OUTCOME_RANGE;\n        // Map outcome to outcome range\n        else\n            convertedWinningOutcome = uint24(OUTCOME_RANGE * (outcome - lowerBound) / (upperBound - lowerBound));\n        uint factorShort = OUTCOME_RANGE - convertedWinningOutcome;\n        uint factorLong = OUTCOME_RANGE - factorShort;\n        winnings = (shortOutcomeTokenCount.mul(factorShort).add(longOutcomeTokenCount.mul(factorLong))) / OUTCOME_RANGE;\n\n        // Payout winnings to sender\n        require(!ForkonomicToken(forkonomicToken).hasBoxWithdrawal(msg.sender, NULL_HASH, branchForWithdraw, collateralBranch), \"there had already been a withdrawal (redeemWinnings)\"); \n        require(ForkonomicToken(forkonomicToken).boxTransfer(msg.sender, winnings, branchForWithdraw, NULL_HASH, NULL_HASH), \"transfer went wrong (redeemWinnings)\");\n        require(ForkonomicToken(forkonomicToken).recordBoxWithdrawal(msg.sender, NULL_HASH, winnings, branchForWithdraw), \"withdrawal could not be recorded\");\n           \n        emit WinningsRedemption(msg.sender, winnings, branchForWithdraw);\n    }\n\n    /// @dev Risky operation, deletes data and can safe gas in combination with other function calls\n    /// @return free gas\n    function clearData()\n    public {\n        delete outcomeTokensCountShort[msg.sender];\n        delete outcomeTokensCountLong[msg.sender];\n    }    \n\n    /// @dev Calculates and returns event hash\n    /// @return Event hash\n    function getEventHash()\n        public\n        view\n        returns (bytes32)\n    {\n        return keccak256(abi.encodePacked(collateralBranch, questionId, lowerBound, upperBound));\n    }\n\n\n    /*\n     *  Public functions\n     */\n    /// @dev Buys equal number of tokens of all outcomes, exchanging collateral tokens and sets of outcome tokens 1:1\n    /// @param collateralTokenCount Number of collateral tokens\n    function buyAllOutcomes(uint collateralTokenCount)\n        public\n    {\n        // Transfer collateral tokens to events contract\n        require(forkonomicToken.transferFrom(msg.sender, this, collateralTokenCount, collateralBranch), \"transfer was not possible\");\n        // Issue new outcome tokens to sender\n        for (uint8 i = 0; i < outcomeTokens.length; i++)\n            outcomeTokens[i].issue(msg.sender, collateralTokenCount);\n        emit OutcomeTokenSetIssuance(msg.sender, collateralTokenCount);\n    }\n\n    /// @dev Sells equal number of tokens of all outcomes, exchanging collateral tokens and sets of outcome tokens 1:1\n    /// @param outcomeTokenCount Number of outcome tokens\n    function sellAllOutcomes(uint outcomeTokenCount)\n        public\n    {  \n          // Revoke sender's outcome tokens of all outcomes\n        for (uint8 i = 0; i < outcomeTokens.length; i++)\n            outcomeTokens[i].revoke(msg.sender, outcomeTokenCount);\n        // Transfer collateral tokens to sender\n        require(forkonomicToken.transfer(msg.sender, outcomeTokenCount, collateralBranch), \"transfer failed\");\n        emit OutcomeTokenSetRevocation(msg.sender, outcomeTokenCount);\n    }\n\n \n    /// @dev gets winning event outcome\n    /// @param branch is the branch on which a user wants to know the result\n    function getOutcome(bytes32 branch, address arbitrator)\n        public\n        view\n        returns (int outcome)\n    {\n\n        // check that original branch is a father of executionbranch:\n        require(fSystem.isFatherOfBranch(collateralBranch, branch), \" not a fahter branch\");\n\n         // ensure that arbitrator is white-listed\n        require(fSystem.isArbitratorWhitelisted(arbitrator, branch), \"arbitrator not white-listed\");\n\n        require(fSystem.isBranchCreatedAfterTS(realityCheck.getFinalizeTS(questionId), branch), \"branch is to old\");\n\n        outcome = int(realityCheck.getFinalAnswerIfMatches(questionId, content_hash, arbitrator, minTimeout, minBond));\n    }\n\n    /// @dev Returns outcome count\n    /// @return Outcome count\n    function getOutcomeCount()\n        public\n        view\n        returns (uint8)\n    {\n        return uint8(outcomeTokens.length);\n    }\n\n    /// @dev Returns outcome tokens array\n    /// @return Outcome tokens\n    function getOutcomeTokens()\n        public\n        view\n        returns (OutcomeToken[])\n    {\n        return outcomeTokens;\n    }\n\n    /// @dev Returns the amount of outcome tokens held by owner\n    /// @return Outcome token distribution\n    function getOutcomeTokenDistribution(address owner)\n        public\n        view\n        returns (uint[] outcomeTokenDistribution)\n    {\n        outcomeTokenDistribution = new uint[](outcomeTokens.length);\n        for (uint8 i = 0; i < outcomeTokenDistribution.length; i++)\n            outcomeTokenDistribution[i] = outcomeTokens[i].balanceOf(owner);\n    }\n\n}\n\n    ",
  "sourcePath": "/home/josojo/reality/tokenized-events/contracts/ScalarEvent.sol",
  "compiler": {
    "name": "solc",
    "version": "0.4.25+commit.59dbf8f1.Emscripten.clang"
  },
  "schemaVersion": "3.0.0-beta.1",
  "updatedAt": "2018-11-11T16:31:32.555Z"
}