{
  "contractName": "StandardMarket",
  "abi": [
    {
      "constant": true,
      "inputs": [],
      "name": "creator",
      "outputs": [
        {
          "name": "",
          "type": "address"
        }
      ],
      "payable": false,
      "stateMutability": "view",
      "type": "function",
      "signature": "0x02d05d3f"
    },
    {
      "constant": true,
      "inputs": [],
      "name": "marketMaker",
      "outputs": [
        {
          "name": "",
          "type": "address"
        }
      ],
      "payable": false,
      "stateMutability": "view",
      "type": "function",
      "signature": "0x1f21f9af"
    },
    {
      "constant": true,
      "inputs": [],
      "name": "fundingBranch",
      "outputs": [
        {
          "name": "",
          "type": "bytes32"
        }
      ],
      "payable": false,
      "stateMutability": "view",
      "type": "function",
      "signature": "0x42df9383"
    },
    {
      "constant": true,
      "inputs": [],
      "name": "createdAtBlock",
      "outputs": [
        {
          "name": "",
          "type": "uint256"
        }
      ],
      "payable": false,
      "stateMutability": "view",
      "type": "function",
      "signature": "0x59acb42c"
    },
    {
      "constant": true,
      "inputs": [
        {
          "name": "",
          "type": "uint256"
        }
      ],
      "name": "netOutcomeTokensSold",
      "outputs": [
        {
          "name": "",
          "type": "int256"
        }
      ],
      "payable": false,
      "stateMutability": "view",
      "type": "function",
      "signature": "0xa157979c"
    },
    {
      "constant": true,
      "inputs": [],
      "name": "stage",
      "outputs": [
        {
          "name": "",
          "type": "uint8"
        }
      ],
      "payable": false,
      "stateMutability": "view",
      "type": "function",
      "signature": "0xc040e6b8"
    },
    {
      "constant": true,
      "inputs": [],
      "name": "funding",
      "outputs": [
        {
          "name": "",
          "type": "uint256"
        }
      ],
      "payable": false,
      "stateMutability": "view",
      "type": "function",
      "signature": "0xcb4c86b7"
    },
    {
      "constant": true,
      "inputs": [],
      "name": "fee",
      "outputs": [
        {
          "name": "",
          "type": "uint24"
        }
      ],
      "payable": false,
      "stateMutability": "view",
      "type": "function",
      "signature": "0xddca3f43"
    },
    {
      "constant": true,
      "inputs": [],
      "name": "eventContract",
      "outputs": [
        {
          "name": "",
          "type": "address"
        }
      ],
      "payable": false,
      "stateMutability": "view",
      "type": "function",
      "signature": "0xe274fd24"
    },
    {
      "constant": true,
      "inputs": [],
      "name": "FEE_RANGE",
      "outputs": [
        {
          "name": "",
          "type": "uint24"
        }
      ],
      "payable": false,
      "stateMutability": "view",
      "type": "function",
      "signature": "0xfbde47f6"
    },
    {
      "inputs": [
        {
          "name": "_creator",
          "type": "address"
        },
        {
          "name": "_eventContract",
          "type": "address"
        },
        {
          "name": "_marketMaker",
          "type": "address"
        },
        {
          "name": "_fee",
          "type": "uint24"
        }
      ],
      "payable": false,
      "stateMutability": "nonpayable",
      "type": "constructor",
      "signature": "constructor"
    },
    {
      "anonymous": false,
      "inputs": [
        {
          "indexed": false,
          "name": "funding",
          "type": "uint256"
        }
      ],
      "name": "MarketFunding",
      "type": "event",
      "signature": "0x8a2fe22ce705a4ac9c189969cef327affbdc477afdae4ae274c2f8ad021f9163"
    },
    {
      "anonymous": false,
      "inputs": [],
      "name": "MarketClosing",
      "type": "event",
      "signature": "0xe7d85885f81486e8f4c99e50e056745493861b8b5d4f973dcf0c3c0f74a25e07"
    },
    {
      "anonymous": false,
      "inputs": [
        {
          "indexed": false,
          "name": "fees",
          "type": "uint256"
        }
      ],
      "name": "FeeWithdrawal",
      "type": "event",
      "signature": "0x706d7f48c702007c2fb0881cea5759732e64f52faee427d5ab030787cfb7d787"
    },
    {
      "anonymous": false,
      "inputs": [
        {
          "indexed": true,
          "name": "buyer",
          "type": "address"
        },
        {
          "indexed": false,
          "name": "outcomeTokenIndex",
          "type": "uint8"
        },
        {
          "indexed": false,
          "name": "outcomeTokenCount",
          "type": "uint256"
        },
        {
          "indexed": false,
          "name": "outcomeTokenCost",
          "type": "uint256"
        },
        {
          "indexed": false,
          "name": "marketFees",
          "type": "uint256"
        }
      ],
      "name": "OutcomeTokenPurchase",
      "type": "event",
      "signature": "0x7caea4a19892ce49b4daa2014d5599eed561dcd16ffabfac851a9737217ae410"
    },
    {
      "anonymous": false,
      "inputs": [
        {
          "indexed": true,
          "name": "seller",
          "type": "address"
        },
        {
          "indexed": false,
          "name": "outcomeTokenIndex",
          "type": "uint8"
        },
        {
          "indexed": false,
          "name": "outcomeTokenCount",
          "type": "uint256"
        },
        {
          "indexed": false,
          "name": "outcomeTokenProfit",
          "type": "uint256"
        },
        {
          "indexed": false,
          "name": "marketFees",
          "type": "uint256"
        }
      ],
      "name": "OutcomeTokenSale",
      "type": "event",
      "signature": "0xab24ef3371efb2e0e3b02955e33b8ef03c14523e71f3bda87878a2386cc17b69"
    },
    {
      "anonymous": false,
      "inputs": [
        {
          "indexed": true,
          "name": "buyer",
          "type": "address"
        },
        {
          "indexed": false,
          "name": "outcomeTokenIndex",
          "type": "uint8"
        },
        {
          "indexed": false,
          "name": "outcomeTokenCount",
          "type": "uint256"
        },
        {
          "indexed": false,
          "name": "cost",
          "type": "uint256"
        }
      ],
      "name": "OutcomeTokenShortSale",
      "type": "event",
      "signature": "0x1dbdc4ff4d51949738d56e120b2be4edecc55d8d2150f1616ec5802abaae3f88"
    },
    {
      "constant": false,
      "inputs": [
        {
          "name": "_funding",
          "type": "uint256"
        }
      ],
      "name": "fund",
      "outputs": [],
      "payable": false,
      "stateMutability": "nonpayable",
      "type": "function",
      "signature": "0xca1d209d"
    },
    {
      "constant": false,
      "inputs": [],
      "name": "close",
      "outputs": [],
      "payable": false,
      "stateMutability": "nonpayable",
      "type": "function",
      "signature": "0x43d726d6"
    },
    {
      "constant": false,
      "inputs": [],
      "name": "withdrawFees",
      "outputs": [
        {
          "name": "fees",
          "type": "uint256"
        }
      ],
      "payable": false,
      "stateMutability": "nonpayable",
      "type": "function",
      "signature": "0x476343ee"
    },
    {
      "constant": false,
      "inputs": [
        {
          "name": "outcomeTokenIndex",
          "type": "uint8"
        },
        {
          "name": "outcomeTokenCount",
          "type": "uint256"
        },
        {
          "name": "maxCost",
          "type": "uint256"
        }
      ],
      "name": "buy",
      "outputs": [
        {
          "name": "cost",
          "type": "uint256"
        }
      ],
      "payable": false,
      "stateMutability": "nonpayable",
      "type": "function",
      "signature": "0xf6d956df"
    },
    {
      "constant": false,
      "inputs": [
        {
          "name": "outcomeTokenIndex",
          "type": "uint8"
        },
        {
          "name": "outcomeTokenCount",
          "type": "uint256"
        },
        {
          "name": "minProfit",
          "type": "uint256"
        }
      ],
      "name": "sell",
      "outputs": [
        {
          "name": "profit",
          "type": "uint256"
        }
      ],
      "payable": false,
      "stateMutability": "nonpayable",
      "type": "function",
      "signature": "0x46280a80"
    },
    {
      "constant": false,
      "inputs": [
        {
          "name": "outcomeTokenIndex",
          "type": "uint8"
        },
        {
          "name": "outcomeTokenCount",
          "type": "uint256"
        },
        {
          "name": "minProfit",
          "type": "uint256"
        }
      ],
      "name": "shortSell",
      "outputs": [
        {
          "name": "cost",
          "type": "uint256"
        }
      ],
      "payable": false,
      "stateMutability": "nonpayable",
      "type": "function",
      "signature": "0x28c05d32"
    },
    {
      "constant": true,
      "inputs": [
        {
          "name": "outcomeTokenCost",
          "type": "uint256"
        }
      ],
      "name": "calcMarketFee",
      "outputs": [
        {
          "name": "",
          "type": "uint256"
        }
      ],
      "payable": false,
      "stateMutability": "view",
      "type": "function",
      "signature": "0xb0011509"
    }
  ],
  "bytecode": "0x60806040523480156200001157600080fd5b506040516080806200265d8339810160409081528151602083015191830151606090930151909290600160a060020a038316158015906200005a5750600160a060020a03821615155b80156200006e5750620f424062ffffff8216105b15156200007a57600080fd5b836000806101000a815481600160a060020a030219169083600160a060020a0316021790555082600160a060020a031663413d24b96040518163ffffffff167c0100000000000000000000000000000000000000000000000000000000028152600401602060405180830381600087803b158015620000f857600080fd5b505af11580156200010d573d6000803e3d6000fd5b505050506040513d60208110156200012457600080fd5b50516007554360015560028054600160a060020a031916600160a060020a038581169190911791829055604080517f7dc8f08600000000000000000000000000000000000000000000000000000000815290519290911691637dc8f086916004808201926020929091908290030181600087803b158015620001a557600080fd5b505af1158015620001ba573d6000803e3d6000fd5b505050506040513d6020811015620001d157600080fd5b50516040805160ff9092168083526020818102840101909152801562000201578160200160208202803883390190505b50805162000218916005916020909101906200027c565b506003805460a060020a62ffffff0219167401000000000000000000000000000000000000000062ffffff84160217600160a060020a031916600160a060020a038416179055600680546000919060ff1916600183021790555050505050620002ec565b828054828255906000526020600020908101928215620002ba579160200282015b82811115620002ba5782518255916020019190600101906200029d565b50620002c8929150620002cc565b5090565b620002e991905b80821115620002c85760008155600101620002d3565b90565b61236180620002fc6000396000f3006080604052600436106100d75763ffffffff60e060020a60003504166302d05d3f81146100dc5780631f21f9af1461010d57806328c05d321461012257806342df93831461015557806343d726d61461016a57806346280a8014610181578063476343ee146101a257806359acb42c146101b7578063a157979c146101cc578063b0011509146101e4578063c040e6b8146101fc578063ca1d209d14610235578063cb4c86b71461024d578063ddca3f4314610262578063e274fd241461028f578063f6d956df146102a4578063fbde47f6146102c5575b600080fd5b3480156100e857600080fd5b506100f16102da565b60408051600160a060020a039092168252519081900360200190f35b34801561011957600080fd5b506100f16102e9565b34801561012e57600080fd5b5061014360ff600435166024356044356102f8565b60408051918252519081900360200190f35b34801561016157600080fd5b50610143610ada565b34801561017657600080fd5b5061017f610ae0565b005b34801561018d57600080fd5b5061014360ff60043516602435604435610e99565b3480156101ae57600080fd5b5061014361143d565b3480156101c357600080fd5b50610143611731565b3480156101d857600080fd5b50610143600435611737565b3480156101f057600080fd5b50610143600435611756565b34801561020857600080fd5b50610211611787565b6040518082600281111561022157fe5b60ff16815260200191505060405180910390f35b34801561024157600080fd5b5061017f600435611790565b34801561025957600080fd5b50610143611c06565b34801561026e57600080fd5b50610277611c0c565b6040805162ffffff9092168252519081900360200190f35b34801561029b57600080fd5b506100f1611c2f565b3480156102b057600080fd5b5061014360ff60043516602435604435611c3e565b3480156102d157600080fd5b5061027761230e565b600054600160a060020a031681565b600354600160a060020a031681565b600080600080600260009054906101000a9004600160a060020a0316600160a060020a031663942032e36040518163ffffffff1660e060020a028152600401602060405180830381600087803b15801561035157600080fd5b505af1158015610365573d6000803e3d6000fd5b505050506040513d602081101561037b57600080fd5b5051600754604080517f401e3367000000000000000000000000000000000000000000000000000000008152336004820152306024820152604481018a9052606481019290925251600160a060020a039092169163401e3367916084808201926020929091908290030181600087803b1580156103f757600080fd5b505af115801561040b573d6000803e3d6000fd5b505050506040513d602081101561042157600080fd5b5051801561054f5750600260009054906101000a9004600160a060020a0316600160a060020a031663942032e36040518163ffffffff1660e060020a028152600401602060405180830381600087803b15801561047d57600080fd5b505af1158015610491573d6000803e3d6000fd5b505050506040513d60208110156104a757600080fd5b5051600254600754604080517f8180f2fc000000000000000000000000000000000000000000000000000000008152600160a060020a039384166004820152602481018b90526044810192909252519190921691638180f2fc9160648083019260209291908290030181600087803b15801561052257600080fd5b505af1158015610536573d6000803e3d6000fd5b505050506040513d602081101561054c57600080fd5b50515b151561055a57600080fd5b600254604080517f28da850b000000000000000000000000000000000000000000000000000000008152600481018990529051600160a060020a03909216916328da850b9160248082019260009290919082900301818387803b1580156105c057600080fd5b505af11580156105d4573d6000803e3d6000fd5b50506002546040805160e160020a63455f2cf502815260ff8c1660048201529051600160a060020a039092169350638abe59ea92506024808201926020929091908290030181600087803b15801561062b57600080fd5b505af115801561063f573d6000803e3d6000fd5b505050506040513d602081101561065557600080fd5b5051604080517f095ea7b3000000000000000000000000000000000000000000000000000000008152306004820152602481018990529051600160a060020a039092169163095ea7b3916044808201926020929091908290030181600087803b1580156106c157600080fd5b505af11580156106d5573d6000803e3d6000fd5b505050506040513d60208110156106eb57600080fd5b5050604080517f46280a8000000000000000000000000000000000000000000000000000000000815260ff891660048201526024810188905260448101879052905130916346280a809160648083019260209291908290030181600087803b15801561075657600080fd5b505af115801561076a573d6000803e3d6000fd5b505050506040513d602081101561078057600080fd5b5051600254604080517f7dc8f0860000000000000000000000000000000000000000000000000000000081529051838a039750929550600160a060020a0390911691637dc8f086916004808201926020929091908290030181600087803b1580156107ea57600080fd5b505af11580156107fe573d6000803e3d6000fd5b505050506040513d602081101561081457600080fd5b50519150600090505b8160ff168160ff1610156109605760ff81811690881614610958576002546040805160e160020a63455f2cf502815260ff841660048201529051600160a060020a0390921691638abe59ea916024808201926020929091908290030181600087803b15801561088b57600080fd5b505af115801561089f573d6000803e3d6000fd5b505050506040513d60208110156108b557600080fd5b5051604080517fa9059cbb000000000000000000000000000000000000000000000000000000008152336004820152602481018990529051600160a060020a039092169163a9059cbb916044808201926020929091908290030181600087803b15801561092157600080fd5b505af1158015610935573d6000803e3d6000fd5b505050506040513d602081101561094b57600080fd5b5051151561095857600080fd5b60010161081d565b600260009054906101000a9004600160a060020a0316600160a060020a031663942032e36040518163ffffffff1660e060020a028152600401602060405180830381600087803b1580156109b357600080fd5b505af11580156109c7573d6000803e3d6000fd5b505050506040513d60208110156109dd57600080fd5b5051600754604080517f57cfeeee00000000000000000000000000000000000000000000000000000000815233600482015260248101879052604481019290925251600160a060020a03909216916357cfeeee916064808201926020929091908290030181600087803b158015610a5357600080fd5b505af1158015610a67573d6000803e3d6000fd5b505050506040513d6020811015610a7d57600080fd5b50511515610a8a57600080fd5b6040805160ff8916815260208101889052808201869052905133917f1dbdc4ff4d51949738d56e120b2be4edecc55d8d2150f1616ec5802abaae3f88919081900360600190a25050509392505050565b60075481565b600080548190600160a060020a03163314610b45576040805160e560020a62461bcd02815260206004820152601260248201527f73656e646572206e6f742063726561746f720000000000000000000000000000604482015290519081900360640190fd5b60018060065460ff166002811115610b5957fe5b14610b9c576040805160e560020a62461bcd0281526020600482015260166024820152600080516020612316833981519152604482015290519081900360640190fd5b600260009054906101000a9004600160a060020a0316600160a060020a0316637dc8f0866040518163ffffffff1660e060020a028152600401602060405180830381600087803b158015610bef57600080fd5b505af1158015610c03573d6000803e3d6000fd5b505050506040513d6020811015610c1957600080fd5b50519250600091505b8260ff168260ff161015610e5e576002546040805160e160020a63455f2cf502815260ff851660048201529051600160a060020a0390921691638abe59ea916024808201926020929091908290030181600087803b158015610c8357600080fd5b505af1158015610c97573d6000803e3d6000fd5b505050506040513d6020811015610cad57600080fd5b5051600080546002546040805160e160020a63455f2cf502815260ff881660048201529051600160a060020a039586169563a9059cbb9594811694931692638abe59ea92602480820193602093909283900390910190829087803b158015610d1457600080fd5b505af1158015610d28573d6000803e3d6000fd5b505050506040513d6020811015610d3e57600080fd5b5051604080517f70a082310000000000000000000000000000000000000000000000000000000081523060048201529051600160a060020a03909216916370a08231916024808201926020929091908290030181600087803b158015610da357600080fd5b505af1158015610db7573d6000803e3d6000fd5b505050506040513d6020811015610dcd57600080fd5b50516040805160e060020a63ffffffff8616028152600160a060020a03909316600484015260248301919091525160448083019260209291908290030181600087803b158015610e1c57600080fd5b505af1158015610e30573d6000803e3d6000fd5b505050506040513d6020811015610e4657600080fd5b50511515610e5357600080fd5b600190910190610c22565b6006805460ff191660021790556040517fe7d85885f81486e8f4c99e50e056745493861b8b5d4f973dcf0c3c0f74a25e0790600090a1505050565b6000808060018060065460ff166002811115610eb157fe5b14610ef4576040805160e560020a62461bcd0281526020600482015260166024820152600080516020612316833981519152604482015290519081900360640190fd5b600354604080517f4091c6a900000000000000000000000000000000000000000000000000000000815230600482015260ff8a166024820152604481018990529051600160a060020a0390921691634091c6a9916064808201926020929091908290030181600087803b158015610f6a57600080fd5b505af1158015610f7e573d6000803e3d6000fd5b505050506040513d6020811015610f9457600080fd5b50519250610fa183611756565b91508273__Math__________________________________63b67d77c59091846040518363ffffffff1660e060020a028152600401808381526020018281526020019250505060206040518083038186803b158015610fff57600080fd5b505af4158015611013573d6000803e3d6000fd5b505050506040513d602081101561102957600080fd5b5051935060008411801561103d5750848410155b151561104857600080fd5b6002546040805160e160020a63455f2cf502815260ff8a1660048201529051600160a060020a0390921691638abe59ea916024808201926020929091908290030181600087803b15801561109b57600080fd5b505af11580156110af573d6000803e3d6000fd5b505050506040513d60208110156110c557600080fd5b5051604080517f23b872dd000000000000000000000000000000000000000000000000000000008152336004820152306024820152604481018990529051600160a060020a03909216916323b872dd916064808201926020929091908290030181600087803b15801561113757600080fd5b505af115801561114b573d6000803e3d6000fd5b505050506040513d602081101561116157600080fd5b5051151561116e57600080fd5b600254604080517f6fb1edcd000000000000000000000000000000000000000000000000000000008152600481018690529051600160a060020a0390921691636fb1edcd9160248082019260009290919082900301818387803b1580156111d457600080fd5b505af11580156111e8573d6000803e3d6000fd5b50505050600260009054906101000a9004600160a060020a0316600160a060020a031663942032e36040518163ffffffff1660e060020a028152600401602060405180830381600087803b15801561123f57600080fd5b505af1158015611253573d6000803e3d6000fd5b505050506040513d602081101561126957600080fd5b5051600754604080517f57cfeeee00000000000000000000000000000000000000000000000000000000815233600482015260248101889052604481019290925251600160a060020a03909216916357cfeeee916064808201926020929091908290030181600087803b1580156112df57600080fd5b505af11580156112f3573d6000803e3d6000fd5b505050506040513d602081101561130957600080fd5b5051151561131657600080fd5b600086121561132457600080fd5b6005805460ff891690811061133557fe5b906000526020600020015473__Math__________________________________63adefc37b9091886040518363ffffffff1660e060020a028152600401808381526020018281526020019250505060206040518083038186803b15801561139b57600080fd5b505af41580156113af573d6000803e3d6000fd5b505050506040513d60208110156113c557600080fd5b50516005805460ff8a169081106113d857fe5b600091825260209182902001919091556040805160ff8a168152918201889052818101859052606082018490525133917fab24ef3371efb2e0e3b02955e33b8ef03c14523e71f3bda87878a2386cc17b69919081900360800190a25050509392505050565b60008054600160a060020a031633146114a0576040805160e560020a62461bcd02815260206004820152601260248201527f73656e646572206e6f742063726561746f720000000000000000000000000000604482015290519081900360640190fd5b600260009054906101000a9004600160a060020a0316600160a060020a031663942032e36040518163ffffffff1660e060020a028152600401602060405180830381600087803b1580156114f357600080fd5b505af1158015611507573d6000803e3d6000fd5b505050506040513d602081101561151d57600080fd5b5051600754604080517f4d30b6be000000000000000000000000000000000000000000000000000000008152306004820152602481019290925251600160a060020a0390921691634d30b6be916044808201926020929091908290030181600087803b15801561158c57600080fd5b505af11580156115a0573d6000803e3d6000fd5b505050506040513d60208110156115b657600080fd5b5051600254604080517f942032e30000000000000000000000000000000000000000000000000000000081529051929350600160a060020a039091169163942032e3916004808201926020929091908290030181600087803b15801561161b57600080fd5b505af115801561162f573d6000803e3d6000fd5b505050506040513d602081101561164557600080fd5b505160008054600754604080517f57cfeeee000000000000000000000000000000000000000000000000000000008152600160a060020a0393841660048201526024810187905260448101929092525191909316926357cfeeee9260648083019360209390929083900390910190829087803b1580156116c457600080fd5b505af11580156116d8573d6000803e3d6000fd5b505050506040513d60208110156116ee57600080fd5b505115156116fb57600080fd5b6040805182815290517f706d7f48c702007c2fb0881cea5759732e64f52faee427d5ab030787cfb7d7879181900360200190a190565b60015481565b600580548290811061174557fe5b600091825260209091200154905081565b600354600090620f42409074010000000000000000000000000000000000000000900462ffffff1683020492915050565b60065460ff1681565b600054600160a060020a031633146117f2576040805160e560020a62461bcd02815260206004820152601260248201527f73656e646572206e6f742063726561746f720000000000000000000000000000604482015290519081900360640190fd5b60008060065460ff16600281111561180657fe5b14611849576040805160e560020a62461bcd0281526020600482015260166024820152600080516020612316833981519152604482015290519081900360640190fd5b600260009054906101000a9004600160a060020a0316600160a060020a031663942032e36040518163ffffffff1660e060020a028152600401602060405180830381600087803b15801561189c57600080fd5b505af11580156118b0573d6000803e3d6000fd5b505050506040513d60208110156118c657600080fd5b5051600754604080517f401e336700000000000000000000000000000000000000000000000000000000815233600482015230602482015260448101869052606481019290925251600160a060020a039092169163401e3367916084808201926020929091908290030181600087803b15801561194257600080fd5b505af1158015611956573d6000803e3d6000fd5b505050506040513d602081101561196c57600080fd5b505115156119c4576040805160e560020a62461bcd02815260206004820152601360248201527f7472616e7366657246726f6d206661696c656400000000000000000000000000604482015290519081900360640190fd5b600260009054906101000a9004600160a060020a0316600160a060020a031663942032e36040518163ffffffff1660e060020a028152600401602060405180830381600087803b158015611a1757600080fd5b505af1158015611a2b573d6000803e3d6000fd5b505050506040513d6020811015611a4157600080fd5b5051600254600754604080517f8180f2fc000000000000000000000000000000000000000000000000000000008152600160a060020a039384166004820152602481018790526044810192909252519190921691638180f2fc9160648083019260209291908290030181600087803b158015611abc57600080fd5b505af1158015611ad0573d6000803e3d6000fd5b505050506040513d6020811015611ae657600080fd5b50511515611b3e576040805160e560020a62461bcd02815260206004820152600f60248201527f617070726f76616c206661696c65640000000000000000000000000000000000604482015290519081900360640190fd5b600254604080517f28da850b000000000000000000000000000000000000000000000000000000008152600481018590529051600160a060020a03909216916328da850b9160248082019260009290919082900301818387803b158015611ba457600080fd5b505af1158015611bb8573d6000803e3d6000fd5b5050506004839055506006805460ff191660011790556040805183815290517f8a2fe22ce705a4ac9c189969cef327affbdc477afdae4ae274c2f8ad021f9163916020908290030190a15050565b60045481565b60035474010000000000000000000000000000000000000000900462ffffff1681565b600254600160a060020a031681565b6000808060018060065460ff166002811115611c5657fe5b14611c99576040805160e560020a62461bcd0281526020600482015260166024820152600080516020612316833981519152604482015290519081900360640190fd5b600354604080517fbd8ff81700000000000000000000000000000000000000000000000000000000815230600482015260ff8a166024820152604481018990529051600160a060020a039092169163bd8ff817916064808201926020929091908290030181600087803b158015611d0f57600080fd5b505af1158015611d23573d6000803e3d6000fd5b505050506040513d6020811015611d3957600080fd5b50519250611d4683611756565b91508273__Math__________________________________63771602f79091846040518363ffffffff1660e060020a028152600401808381526020018281526020019250505060206040518083038186803b158015611da457600080fd5b505af4158015611db8573d6000803e3d6000fd5b505050506040513d6020811015611dce57600080fd5b50519350600084118015611de25750848411155b1515611ded57600080fd5b600260009054906101000a9004600160a060020a0316600160a060020a031663942032e36040518163ffffffff1660e060020a028152600401602060405180830381600087803b158015611e4057600080fd5b505af1158015611e54573d6000803e3d6000fd5b505050506040513d6020811015611e6a57600080fd5b5051600754604080517f401e336700000000000000000000000000000000000000000000000000000000815233600482015230602482015260448101889052606481019290925251600160a060020a039092169163401e3367916084808201926020929091908290030181600087803b158015611ee657600080fd5b505af1158015611efa573d6000803e3d6000fd5b505050506040513d6020811015611f1057600080fd5b5051801561203e5750600260009054906101000a9004600160a060020a0316600160a060020a031663942032e36040518163ffffffff1660e060020a028152600401602060405180830381600087803b158015611f6c57600080fd5b505af1158015611f80573d6000803e3d6000fd5b505050506040513d6020811015611f9657600080fd5b5051600254600754604080517f8180f2fc000000000000000000000000000000000000000000000000000000008152600160a060020a039384166004820152602481018890526044810192909252519190921691638180f2fc9160648083019260209291908290030181600087803b15801561201157600080fd5b505af1158015612025573d6000803e3d6000fd5b505050506040513d602081101561203b57600080fd5b50515b151561204957600080fd5b600254604080517f28da850b000000000000000000000000000000000000000000000000000000008152600481018690529051600160a060020a03909216916328da850b9160248082019260009290919082900301818387803b1580156120af57600080fd5b505af11580156120c3573d6000803e3d6000fd5b50506002546040805160e160020a63455f2cf502815260ff8c1660048201529051600160a060020a039092169350638abe59ea92506024808201926020929091908290030181600087803b15801561211a57600080fd5b505af115801561212e573d6000803e3d6000fd5b505050506040513d602081101561214457600080fd5b5051604080517fa9059cbb000000000000000000000000000000000000000000000000000000008152336004820152602481018990529051600160a060020a039092169163a9059cbb916044808201926020929091908290030181600087803b1580156121b057600080fd5b505af11580156121c4573d6000803e3d6000fd5b505050506040513d60208110156121da57600080fd5b505115156121e757600080fd5b60008612156121f557600080fd5b6005805460ff891690811061220657fe5b906000526020600020015473__Math__________________________________63a5f3c23b9091886040518363ffffffff1660e060020a028152600401808381526020018281526020019250505060206040518083038186803b15801561226c57600080fd5b505af4158015612280573d6000803e3d6000fd5b505050506040513d602081101561229657600080fd5b50516005805460ff8a169081106122a957fe5b600091825260209182902001919091556040805160ff8a168152918201889052818101859052606082018490525133917f7caea4a19892ce49b4daa2014d5599eed561dcd16ffabfac851a9737217ae410919081900360800190a25050509392505050565b620f4240815600696e636f7272656374206d61726b657420737461676500000000000000000000a165627a7a7230582062095475d29897ae9f77a082f9f8eaae5008ebb5f6ff0e2af56a8b28cbf3aaa30029",
  "source": "pragma solidity ^0.4.15;\n\nimport \"@josojo/forkonomics-contracts/contracts/ForkonomicToken.sol\";\nimport \"@josojo/forkonomics-contracts/contracts/ForkonomicSystem.sol\";\nimport \"../ScalarEvent.sol\";\nimport \"./MarketMaker.sol\";\n\n\n/// @title Market factory contract - Allows to create market contracts\n/// @author Stefan George - <stefan@gnosis.pm>\ncontract StandardMarket is Market{\n    using Math for *;\n\n    /*\n     *  Constants\n     */\n    uint24 public constant FEE_RANGE = 1000000; // 100%\n    \n    bytes32 public fundingBranch;\n    /*\n     *  Modifiers\n     */\n    modifier isCreator() {\n        // Only creator is allowed to proceed\n        require(msg.sender == creator, \"sender not creator\");\n        _;\n    }\n\n    modifier atStage(Stages _stage) {\n        // Contract has to be in given stage\n        require(stage == _stage, \"incorrect market stage\");\n        _;\n    }\n\n    /*\n     *  Public functions\n     */\n    /// @dev Constructor validates and sets market properties\n    /// @param _creator Market creator\n    /// @param _eventContract Event contract\n    /// @param _marketMaker Market maker contract\n    /// @param _fee Market fee\n    function StandardMarket(address _creator, ScalarEvent _eventContract, MarketMaker _marketMaker, uint24 _fee)\n        public\n    {\n        // Validate inputs\n        require(address(_eventContract) != 0 && address(_marketMaker) != 0 && _fee < FEE_RANGE);\n        creator = _creator;\n        fundingBranch = _eventContract.collateralBranch();\n        createdAtBlock = block.number;\n        eventContract = _eventContract;\n        netOutcomeTokensSold = new int[](eventContract.getOutcomeCount());\n        fee = _fee;\n        marketMaker = _marketMaker;\n        stage = Stages.MarketCreated;\n    }\n\n    /// @dev Allows to fund the market with collateral tokens converting them into outcome tokens\n    /// @param _funding Funding amount\n    function fund(uint _funding)\n        public\n        isCreator\n        atStage(Stages.MarketCreated)\n    {\n        // Request collateral tokens and allow event contract to transfer them to buy all outcomes\n        require( eventContract.forkonomicToken().transferFrom(msg.sender, this, _funding, fundingBranch), \"transferFrom failed\");\n        require( eventContract.forkonomicToken().approve(eventContract, _funding, fundingBranch), \"approval failed\");\n        eventContract.buyAllOutcomes(_funding);\n        funding = _funding;\n        stage = Stages.MarketFunded;\n        MarketFunding(funding);\n    }\n\n    /// @dev Allows market creator to close the markets by transferring all remaining outcome tokens to the creator\n    function close()\n        public\n        isCreator\n        atStage(Stages.MarketFunded)\n    {\n        uint8 outcomeCount = eventContract.getOutcomeCount();\n        for (uint8 i = 0; i < outcomeCount; i++)\n            require(eventContract.outcomeTokens(i).transfer(creator, eventContract.outcomeTokens(i).balanceOf(this)));\n        stage = Stages.MarketClosed;\n        MarketClosing();\n    }\n\n    /// @dev Allows market creator to withdraw fees generated by trades\n    /// @return Fee amount\n    function withdrawFees()\n        public\n        isCreator\n        returns (uint fees)\n    {\n        fees = eventContract.forkonomicToken().balanceOf(this, fundingBranch);\n        // Transfer fees\n        require(eventContract.forkonomicToken().transfer(creator, fees, fundingBranch));\n        FeeWithdrawal(fees);\n    }\n\n    /// @dev Allows to buy outcome tokens from market maker\n    /// @param outcomeTokenIndex Index of the outcome token to buy\n    /// @param outcomeTokenCount Amount of outcome tokens to buy\n    /// @param maxCost The maximum cost in collateral tokens to pay for outcome tokens\n    /// @return Cost in collateral tokens\n    function buy(uint8 outcomeTokenIndex, uint outcomeTokenCount, uint maxCost)\n        public\n        atStage(Stages.MarketFunded)\n        returns (uint cost)\n    {\n        // Calculate cost to buy outcome tokens\n        uint outcomeTokenCost = marketMaker.calcCost(this, outcomeTokenIndex, outcomeTokenCount);\n        // Calculate fees charged by market\n        uint fees = calcMarketFee(outcomeTokenCost);\n        cost = outcomeTokenCost.add(fees);\n        // Check cost doesn't exceed max cost\n        require(cost > 0 && cost <= maxCost);\n        // Transfer tokens to markets contract and buy all outcomes\n        require(   eventContract.forkonomicToken().transferFrom(msg.sender, this, cost, fundingBranch)\n                && eventContract.forkonomicToken().approve(eventContract, outcomeTokenCost, fundingBranch));\n        // Buy all outcomes\n        eventContract.buyAllOutcomes(outcomeTokenCost);\n        // Transfer outcome tokens to buyer\n        require(eventContract.outcomeTokens(outcomeTokenIndex).transfer(msg.sender, outcomeTokenCount));\n        // Add outcome token count to market maker net balance\n        require(int(outcomeTokenCount) >= 0);\n        netOutcomeTokensSold[outcomeTokenIndex] = netOutcomeTokensSold[outcomeTokenIndex].add(int(outcomeTokenCount));\n        OutcomeTokenPurchase(msg.sender, outcomeTokenIndex, outcomeTokenCount, outcomeTokenCost, fees);\n    }\n\n    /// @dev Allows to sell outcome tokens to market maker\n    /// @param outcomeTokenIndex Index of the outcome token to sell\n    /// @param outcomeTokenCount Amount of outcome tokens to sell\n    /// @param minProfit The minimum profit in collateral tokens to earn for outcome tokens\n    /// @return Profit in collateral tokens\n    function sell(uint8 outcomeTokenIndex, uint outcomeTokenCount, uint minProfit)\n        public\n        atStage(Stages.MarketFunded)\n        returns (uint profit)\n    {\n        // Calculate profit for selling outcome tokens\n        uint outcomeTokenProfit = marketMaker.calcProfit(this, outcomeTokenIndex, outcomeTokenCount);\n        // Calculate fee charged by market\n        uint fees = calcMarketFee(outcomeTokenProfit);\n        profit = outcomeTokenProfit.sub(fees);\n        // Check profit is not too low\n        require(profit > 0 && profit >= minProfit);\n        // Transfer outcome tokens to markets contract to sell all outcomes\n        require(eventContract.outcomeTokens(outcomeTokenIndex).transferFrom(msg.sender, this, outcomeTokenCount));\n        // Sell all outcomes\n        eventContract.sellAllOutcomes(outcomeTokenProfit);\n        // Transfer profit to seller\n        require(eventContract.forkonomicToken().transfer(msg.sender, profit, fundingBranch));\n        // Subtract outcome token count from market maker net balance\n        require(int(outcomeTokenCount) >= 0);\n        netOutcomeTokensSold[outcomeTokenIndex] = netOutcomeTokensSold[outcomeTokenIndex].sub(int(outcomeTokenCount));\n        OutcomeTokenSale(msg.sender, outcomeTokenIndex, outcomeTokenCount, outcomeTokenProfit, fees);\n    }\n\n    /// @dev Buys all outcomes, then sells all shares of selected outcome which were bought, keeping\n    ///      shares of all other outcome tokens.\n    /// @param outcomeTokenIndex Index of the outcome token to short sell\n    /// @param outcomeTokenCount Amount of outcome tokens to short sell\n    /// @param minProfit The minimum profit in collateral tokens to earn for short sold outcome tokens\n    /// @return Cost to short sell outcome in collateral tokens\n    function shortSell(uint8 outcomeTokenIndex, uint outcomeTokenCount, uint minProfit)\n        public\n        returns (uint cost)\n    {\n        // Buy all outcomes\n        require(   eventContract.forkonomicToken().transferFrom(msg.sender, this, outcomeTokenCount, fundingBranch)\n                && eventContract.forkonomicToken().approve(eventContract, outcomeTokenCount, fundingBranch));\n        eventContract.buyAllOutcomes(outcomeTokenCount);\n        // Short sell selected outcome\n        eventContract.outcomeTokens(outcomeTokenIndex).approve(this, outcomeTokenCount);\n        uint profit = this.sell(outcomeTokenIndex, outcomeTokenCount, minProfit);\n        cost = outcomeTokenCount - profit;\n        // Transfer outcome tokens to buyer\n        uint8 outcomeCount = eventContract.getOutcomeCount();\n        for (uint8 i = 0; i < outcomeCount; i++)\n            if (i != outcomeTokenIndex)\n                require(eventContract.outcomeTokens(i).transfer(msg.sender, outcomeTokenCount));\n        // Send change back to buyer\n        require(eventContract.forkonomicToken().transfer(msg.sender, profit, fundingBranch));\n        OutcomeTokenShortSale(msg.sender, outcomeTokenIndex, outcomeTokenCount, cost);\n    }\n\n    /// @dev Calculates fee to be paid to market maker\n    /// @param outcomeTokenCost Cost for buying outcome tokens\n    /// @return Fee for trade\n    function calcMarketFee(uint outcomeTokenCost)\n        public\n        constant\n        returns (uint)\n    {\n        return outcomeTokenCost * fee / FEE_RANGE;\n    }\n}\n",
  "sourcePath": "/home/josojo/reality/tokenized-events/contracts/Market/StandardMarket.sol",
  "compiler": {
    "name": "solc",
    "version": "0.4.25+commit.59dbf8f1.Emscripten.clang"
  },
  "schemaVersion": "3.0.0-beta.1",
  "updatedAt": "2018-11-11T16:31:32.593Z"
}